{
  "abi": [
    {
      "inputs": [],
      "stateMutability": "nonpayable",
      "type": "constructor"
    },
    {
      "inputs": [],
      "name": "BLOCK_NUMBER_FROM_HEADER",
      "outputs": [
        {
          "internalType": "address",
          "name": "",
          "type": "address"
        }
      ],
      "stateMutability": "view",
      "type": "function"
    },
    {
      "inputs": [],
      "name": "EPOCH_SIZE",
      "outputs": [
        {
          "internalType": "address",
          "name": "",
          "type": "address"
        }
      ],
      "stateMutability": "view",
      "type": "function"
    },
    {
      "inputs": [],
      "name": "FRACTION_MUL",
      "outputs": [
        {
          "internalType": "address",
          "name": "",
          "type": "address"
        }
      ],
      "stateMutability": "view",
      "type": "function"
    },
    {
      "inputs": [],
      "name": "GET_PARENT_SEAL_BITMAP",
      "outputs": [
        {
          "internalType": "address",
          "name": "",
          "type": "address"
        }
      ],
      "stateMutability": "view",
      "type": "function"
    },
    {
      "inputs": [],
      "name": "GET_VALIDATOR",
      "outputs": [
        {
          "internalType": "address",
          "name": "",
          "type": "address"
        }
      ],
      "stateMutability": "view",
      "type": "function"
    },
    {
      "inputs": [],
      "name": "GET_VERIFIED_SEAL_BITMAP",
      "outputs": [
        {
          "internalType": "address",
          "name": "",
          "type": "address"
        }
      ],
      "stateMutability": "view",
      "type": "function"
    },
    {
      "inputs": [],
      "name": "HASH_HEADER",
      "outputs": [
        {
          "internalType": "address",
          "name": "",
          "type": "address"
        }
      ],
      "stateMutability": "view",
      "type": "function"
    },
    {
      "inputs": [],
      "name": "NUMBER_VALIDATORS",
      "outputs": [
        {
          "internalType": "address",
          "name": "",
          "type": "address"
        }
      ],
      "stateMutability": "view",
      "type": "function"
    },
    {
      "inputs": [],
      "name": "PROOF_OF_POSSESSION",
      "outputs": [
        {
          "internalType": "address",
          "name": "",
          "type": "address"
        }
      ],
      "stateMutability": "view",
      "type": "function"
    },
    {
      "inputs": [],
      "name": "TRANSFER",
      "outputs": [
        {
          "internalType": "address",
          "name": "",
          "type": "address"
        }
      ],
      "stateMutability": "view",
      "type": "function"
    },
    {
      "inputs": [],
      "name": "catchAll",
      "outputs": [],
      "stateMutability": "view",
      "type": "function"
    },
    {
      "inputs": [
        {
          "internalType": "address",
          "name": "prec",
          "type": "address"
        },
        {
          "internalType": "bytes32",
          "name": "callHash",
          "type": "bytes32"
        }
      ],
      "name": "clearMock",
      "outputs": [],
      "stateMutability": "nonpayable",
      "type": "function"
    },
    {
      "inputs": [],
      "name": "debug",
      "outputs": [
        {
          "internalType": "bool",
          "name": "",
          "type": "bool"
        }
      ],
      "stateMutability": "view",
      "type": "function"
    },
    {
      "inputs": [],
      "name": "epochSize",
      "outputs": [
        {
          "internalType": "uint256",
          "name": "",
          "type": "uint256"
        }
      ],
      "stateMutability": "view",
      "type": "function"
    },
    {
      "inputs": [
        {
          "internalType": "address",
          "name": "prec",
          "type": "address"
        },
        {
          "internalType": "bytes32",
          "name": "callHash",
          "type": "bytes32"
        },
        {
          "internalType": "bytes",
          "name": "returnData",
          "type": "bytes"
        }
      ],
      "name": "mockReturn",
      "outputs": [],
      "stateMutability": "nonpayable",
      "type": "function"
    },
    {
      "inputs": [
        {
          "internalType": "address",
          "name": "prec",
          "type": "address"
        },
        {
          "internalType": "bytes32",
          "name": "callHash",
          "type": "bytes32"
        }
      ],
      "name": "mockRevert",
      "outputs": [],
      "stateMutability": "nonpayable",
      "type": "function"
    },
    {
      "inputs": [
        {
          "internalType": "address",
          "name": "prec",
          "type": "address"
        },
        {
          "internalType": "bytes32",
          "name": "callHash",
          "type": "bytes32"
        }
      ],
      "name": "mockSuccess",
      "outputs": [],
      "stateMutability": "nonpayable",
      "type": "function"
    },
    {
      "inputs": [
        {
          "internalType": "bool",
          "name": "debug_",
          "type": "bool"
        }
      ],
      "name": "setDebug",
      "outputs": [],
      "stateMutability": "nonpayable",
      "type": "function"
    },
    {
      "inputs": [
        {
          "internalType": "uint256",
          "name": "epochSize_",
          "type": "uint256"
        }
      ],
      "name": "setEpochSize",
      "outputs": [],
      "stateMutability": "nonpayable",
      "type": "function"
    },
    {
      "inputs": [
        {
          "internalType": "address",
          "name": "from",
          "type": "address"
        },
        {
          "internalType": "address",
          "name": "to",
          "type": "address"
        },
        {
          "internalType": "uint256",
          "name": "amount",
          "type": "uint256"
        }
      ],
      "name": "transfer",
      "outputs": [
        {
          "internalType": "bool",
          "name": "",
          "type": "bool"
        }
      ],
      "stateMutability": "nonpayable",
      "type": "function"
    },
    {
      "inputs": [],
      "name": "vm",
      "outputs": [
        {
          "internalType": "contract Vm",
          "name": "",
          "type": "address"
        }
      ],
      "stateMutability": "view",
      "type": "function"
    }
  ],
  "bytecode": {
    "object": "0x6143806000556001805460ff191681556080818152600380546020601f600295831615610100908102600019019093169590950494850181900402810160405260e0848152929360a0939291828280156200009e5780601f1062000072576101008083540402835291602001916200009e565b820191906000526020600020905b8154815290600101906020018083116200008057829003601f168201915b5050509183525050600160209182015281516004805460ff19169115159190911781558282015180519192620000db926005929091019062001341565b506040918201516002918201805460ff191691151591909117905581516060810183526001808252600380548551602061010094831615949094026000190190911694909404601f81018390048302850183019095528484529193818501939291830182828015620001915780601f10620001655761010080835404028352916020019162000191565b820191906000526020600020905b8154815290600101906020018083116200017357829003601f168201915b5050509183525050600160209182015281516007805460ff19169115159190911781558282015180519192620001ce926008929091019062001341565b50604091909101516002909101805460ff1916911515919091179055348015620001f757600080fd5b5060408051600080516020620021978339815191528152905190819003600f0181206001600160a01b03169063b4d6c7829060fd906200025790806021620021b7823960405190819003602101902090506001600160e01b03620012b416565b604080516001600160e01b031960e086901b1681526001600160a01b038416600482019081526024820192835283516044830152835190929160640190602085019080838360005b83811015620002b95781810151838201526020016200029f565b50505050905090810190601f168015620002e75780820380516001836020036101000a031916815260200191505b509350505050600060405180830381600087803b1580156200030857600080fd5b505af11580156200031d573d6000803e3d6000fd5b505060408051600080516020620021978339815191528152815190819003600f0181206318caf8e360e31b825260fd60048301526024820183905260086044830152672a2920a729a322a960c11b606483015291516001600160a01b03909216935063c657c718925060848082019260009290919082900301818387803b158015620003a857600080fd5b505af1158015620003bd573d6000803e3d6000fd5b505060408051600080516020620021978339815191528152815190819003600f0181206a65706f636853697a65282960a81b8252915190819003600b0190206001600160a01b03909116925063b4d6c782915060f89062000427906001600160e01b03620012b416565b604080516001600160e01b031960e086901b1681526001600160a01b038416600482019081526024820192835283516044830152835190929160640190602085019080838360005b83811015620004895781810151838201526020016200046f565b50505050905090810190601f168015620004b75780820380516001836020036101000a031916815260200191505b509350505050600060405180830381600087803b158015620004d857600080fd5b505af1158015620004ed573d6000803e3d6000fd5b505060408051600080516020620021978339815191528152815190819003600f0181206318caf8e360e31b825260f8600483015260248201839052600a60448301526945504f43485f53495a4560b01b606483015291516001600160a01b03909216935063c657c718925060848082019260009290919082900301818387803b1580156200057a57600080fd5b505af11580156200058f573d6000803e3d6000fd5b505060408051696361746368416c6c282960b01b8152905190819003600a01902060609250620005c991506001600160e01b03620012b416565b60408051600080516020620021978339815191528152815190819003600f018120635a6b63c160e11b825260fc60048301818152602484019485528551604485015285519596506001600160a01b039092169463b4d6c78294919387939291606490910190602085019080838360005b838110156200065357818101518382015260200162000639565b50505050905090810190601f168015620006815780820380516001836020036101000a031916815260200191505b509350505050600060405180830381600087803b158015620006a257600080fd5b505af1158015620006b7573d6000803e3d6000fd5b505060408051600080516020620021978339815191528152815190819003600f0181206318caf8e360e31b825260fc600483015260248201839052600c60448301526b11949050d51253d397d3555360a21b606483015291516001600160a01b03909216935063c657c718925060848082019260009290919082900301818387803b1580156200074657600080fd5b505af11580156200075b573d6000803e3d6000fd5b505060408051600080516020620021978339815191528152815190819003600f018120635a6b63c160e11b825260fb60048301818152602484019485528751604485015287516001600160a01b03909316965063b4d6c7829550909387939192909160640190602085019080838360005b83811015620007e6578181015183820152602001620007cc565b50505050905090810190601f168015620008145780820380516001836020036101000a031916815260200191505b509350505050600060405180830381600087803b1580156200083557600080fd5b505af11580156200084a573d6000803e3d6000fd5b505060408051600080516020620021978339815191528152815190819003600f0181206318caf8e360e31b825260fb600483015260248201839052601360448301527f50524f4f465f4f465f504f5353455353494f4e00000000000000000000000000606483015291516001600160a01b03909216935063c657c718925060848082019260009290919082900301818387803b158015620008ea57600080fd5b505af1158015620008ff573d6000803e3d6000fd5b505060408051600080516020620021978339815191528152815190819003600f018120635a6b63c160e11b825260fa60048301818152602484019485528751604485015287516001600160a01b03909316965063b4d6c7829550909387939192909160640190602085019080838360005b838110156200098a57818101518382015260200162000970565b50505050905090810190601f168015620009b85780820380516001836020036101000a031916815260200191505b509350505050600060405180830381600087803b158015620009d957600080fd5b505af1158015620009ee573d6000803e3d6000fd5b505060408051600080516020620021978339815191528152815190819003600f0181206318caf8e360e31b825260fa600483015260248201839052600d60448301526c23a2aa2fab20a624a220aa27a960991b606483015291516001600160a01b03909216935063c657c718925060848082019260009290919082900301818387803b15801562000a7e57600080fd5b505af115801562000a93573d6000803e3d6000fd5b505060408051600080516020620021978339815191528152815190819003600f018120635a6b63c160e11b825260f960048301818152602484019485528751604485015287516001600160a01b03909316965063b4d6c7829550909387939192909160640190602085019080838360005b8381101562000b1e57818101518382015260200162000b04565b50505050905090810190601f16801562000b4c5780820380516001836020036101000a031916815260200191505b509350505050600060405180830381600087803b15801562000b6d57600080fd5b505af115801562000b82573d6000803e3d6000fd5b505060408051600080516020620021978339815191528152815190819003600f0181206318caf8e360e31b825260f960048301526024820183905260116044830152704e554d4245525f56414c494441544f525360781b606483015291516001600160a01b03909216935063c657c718925060848082019260009290919082900301818387803b15801562000c1657600080fd5b505af115801562000c2b573d6000803e3d6000fd5b505060408051600080516020620021978339815191528152815190819003600f018120635a6b63c160e11b825260f760048301818152602484019485528751604485015287516001600160a01b03909316965063b4d6c7829550909387939192909160640190602085019080838360005b8381101562000cb657818101518382015260200162000c9c565b50505050905090810190601f16801562000ce45780820380516001836020036101000a031916815260200191505b509350505050600060405180830381600087803b15801562000d0557600080fd5b505af115801562000d1a573d6000803e3d6000fd5b505060408051600080516020620021978339815191528152815190819003600f0181206318caf8e360e31b825260f7600483015260248201839052601860448301527f424c4f434b5f4e554d4245525f46524f4d5f4845414445520000000000000000606483015291516001600160a01b03909216935063c657c718925060848082019260009290919082900301818387803b15801562000dba57600080fd5b505af115801562000dcf573d6000803e3d6000fd5b505060408051600080516020620021978339815191528152815190819003600f018120635a6b63c160e11b825260f660048301818152602484019485528751604485015287516001600160a01b03909316965063b4d6c7829550909387939192909160640190602085019080838360005b8381101562000e5a57818101518382015260200162000e40565b50505050905090810190601f16801562000e885780820380516001836020036101000a031916815260200191505b509350505050600060405180830381600087803b15801562000ea957600080fd5b505af115801562000ebe573d6000803e3d6000fd5b505060408051600080516020620021978339815191528152815190819003600f0181206318caf8e360e31b825260f6600483015260248201839052600b60448301526a2420a9a42fa422a0a222a960a91b606483015291516001600160a01b03909216935063c657c718925060848082019260009290919082900301818387803b15801562000f4c57600080fd5b505af115801562000f61573d6000803e3d6000fd5b505060408051600080516020620021978339815191528152815190819003600f018120635a6b63c160e11b825260f560048301818152602484019485528751604485015287516001600160a01b03909316965063b4d6c7829550909387939192909160640190602085019080838360005b8381101562000fec57818101518382015260200162000fd2565b50505050905090810190601f1680156200101a5780820380516001836020036101000a031916815260200191505b509350505050600060405180830381600087803b1580156200103b57600080fd5b505af115801562001050573d6000803e3d6000fd5b505060408051600080516020620021978339815191528152815190819003600f0181206318caf8e360e31b825260f5600483015260248201839052601660448301527f4745545f504152454e545f5345414c5f4249544d415000000000000000000000606483015291516001600160a01b03909216935063c657c718925060848082019260009290919082900301818387803b158015620010f057600080fd5b505af115801562001105573d6000803e3d6000fd5b505060408051600080516020620021978339815191528152815190819003600f018120635a6b63c160e11b825260f460048301818152602484019485528751604485015287516001600160a01b03909316965063b4d6c7829550909387939192909160640190602085019080838360005b838110156200119057818101518382015260200162001176565b50505050905090810190601f168015620011be5780820380516001836020036101000a031916815260200191505b509350505050600060405180830381600087803b158015620011df57600080fd5b505af1158015620011f4573d6000803e3d6000fd5b505060408051600080516020620021978339815191528152815190819003600f0181206318caf8e360e31b825260f4600483015260248201839052601860448301527f4745545f56455249464945445f5345414c5f4249544d41500000000000000000606483015291516001600160a01b03909216935063c657c718925060848082019260009290919082900301818387803b1580156200129457600080fd5b505af1158015620012a9573d6000803e3d6000fd5b5050505050620013e6565b6040805160608082527f730000000000000000000000000000000000000000630000000060006004360169ffffffff00000000000060b086901c163060581b171760208301527f8260e01b82523660006004840137600080828434885af13d6000816000823e82828401526d60008114604a578282f35b8282fd60901b9082015260808101909152919050565b828054600181600116156101000203166002900490600052602060002090601f016020900481019282601f106200138457805160ff1916838001178555620013b4565b82800160010185558215620013b4579182015b82811115620013b457825182559160200191906001019062001397565b50620013c2929150620013c6565b5090565b620013e391905b80821115620013c25760008155600101620013cd565b90565b610da180620013f66000396000f3fe608060405234801561001057600080fd5b50600436106101375760003560e01c806359f436f6116100b8578063beabacc81161007c578063beabacc81461030a578063c94ebecd14610340578063d45b54ec14610348578063dd18aba514610350578063dd1bb13314610358578063f7b5ef781461038457610137565b806359f436f6146102e257806362656003146102ea57806376420e1d146102f257806387ada000146102fa578063b1bf964d1461030257610137565b8063358aa643116100ff578063358aa643146101bd5780633a768463146101e957806356e99e14146101f1578063572d356e146102ac578063588ee29b146102c657610137565b80630c2cb8201461013c5780631813a7e81461015d578063187f9b50146101815780631b65390e1461018957806324b25d26146101b5575b600080fd5b61015b6004803603602081101561015257600080fd5b503515156103a1565b005b6101656103b4565b604080516001600160a01b039092168252519081900360200190f35b6101656103b9565b61015b6004803603604081101561019f57600080fd5b506001600160a01b0381351690602001356103be565b6101656104d4565b61015b600480360360408110156101d357600080fd5b506001600160a01b0381351690602001356104d9565b610165610522565b61015b6004803603606081101561020757600080fd5b6001600160a01b038235169160208101359181019060608101604082013564010000000081111561023757600080fd5b82018360208201111561024957600080fd5b8035906020019184600183028401116401000000008311171561026b57600080fd5b91908080601f016020809104026020016040519081016040528093929190818152602001838380828437600092019190915250929550610552945050505050565b6102b46105df565b60408051918252519081900360200190f35b6102ce6105e5565b604080519115158252519081900360200190f35b6101656105ee565b6101656105f3565b6101656105f8565b6101656105fd565b610165610602565b6102ce6004803603606081101561032057600080fd5b506001600160a01b03813581169160208101359091169060400135610607565b61015b61072c565b6101656108c6565b6101656108cb565b61015b6004803603604081101561036e57600080fd5b506001600160a01b0381351690602001356108d0565b61015b6004803603602081101561039a57600080fd5b5035610985565b6001805460ff1916911515919091179055565b60fa81565b60f481565b604080516060810182526004805460ff16151582526005805484516020601f6002600019600186161561010002019094169390930492830181900481028201810190965281815261048695889588959094909382860193928301828280156104675780601f1061043c57610100808354040283529160200191610467565b820191906000526020600020905b81548152906001019060200180831161044a57829003601f168201915b50505091835250506002919091015460ff16151560209091015261098a565b60015460ff16156104d0576104be6040518060400160405280600c81526020016b4d6f636b207375636365737360a01b815250610a6a565b6104c782610b13565b6104d081610b5f565b5050565b60f681565b6001600160a01b03821660009081526002602090815260408083208484529091528120805460ff19168155906105126001830182610c67565b50600201805460ff191690555050565b604080516e6865766d20636865617420636f646560881b8152905190819003600f0190206001600160a01b031681565b61057d838360405180606001604052806001151581526020018581526020016001151581525061098a565b60015460ff16156105da576105bf604051806040016040528060168152602001754d6f636b20737563636573732077697468206461746160501b815250610a6a565b6105c883610b13565b6105d182610b5f565b6105da81610ba0565b505050565b60005481565b60015460ff1681565b60f981565b60f881565b60fd81565b60f781565b60fc81565b604080516e6865766d20636865617420636f646560881b8152815190819003600f01812063c88a5e6d60e01b82526001600160a01b038681166004840181905231859003602484015292516000939091169163c88a5e6d916044808301928692919082900301818387803b15801561067e57600080fd5b505af1158015610692573d6000803e3d6000fd5b5050604080516e6865766d20636865617420636f646560881b8152815190819003600f01812063c88a5e6d60e01b82526001600160a01b0388811660048401819052318801602484015292519216935063c88a5e6d925060448082019260009290919082900301818387803b15801561070a57600080fd5b505af115801561071e573d6000803e3d6000fd5b506001979650505050505050565b6040516003193601808252806004602084013781016020908101604052815190820120610757610cab565b3360009081526002602081815260408084208685528252928390208351606081018552815460ff16151581526001808301805487516101009382161593909302600019011695909504601f81018590048502820185019096528581529094919385840193919290918301828280156108105780601f106107e557610100808354040283529160200191610810565b820191906000526020600020905b8154815290600101906020018083116107f357829003601f168201915b50505091835250506002919091015460ff161515602090910152604081015190915061089e5761083f33610b13565b61084883610ba0565b61085182610b5f565b6040805162461bcd60e51b815260206004820152601960248201527f6d6f636b206e6f7420646566696e656420666f722063616c6c00000000000000604482015290519081900360640190fd5b80516108a957600080fd5b602081015151156105da5760608160200151905080518060208301f35b60fb81565b60f581565b604080516060810182526007805460ff16151582526008805484516020601f6002600019600186161561010002019094169390930492830181900481028201810190965281815261094e95889588959094909382860193928301828280156104675780601f1061043c57610100808354040283529160200191610467565b60015460ff16156104d0576104be6040518060400160405280600b81526020016a135bd8dac81c995d995c9d60aa1b815250610a6a565b600055565b60f46001600160a01b038416108015906109ae575060fd6001600160a01b03841611155b6109ff576040805162461bcd60e51b815260206004820152601860248201527f707265636f6d70696c65206e6f7420737570706f727465640000000000000000604482015290519081900360640190fd5b6001600160a01b038316600090815260026020908152604080832085845282529091208251815460ff19169015151781558282015180518493610a49926001850192910190610cd0565b50604091909101516002909101805460ff1916911515919091179055505050565b610b10816040516024018080602001828103825283818151815260200191508051906020019080838360005b83811015610aae578181015183820152602001610a96565b50505050905090810190601f168015610adb5780820380516001836020036101000a031916815260200191505b5060408051601f198184030181529190526020810180516001600160e01b031663104c13eb60e21b1790529250610c46915050565b50565b604080516001600160a01b0383166024808301919091528251808303909101815260449091019091526020810180516001600160e01b031663161765e160e11b179052610b1090610c46565b6040805160248082018490528251808303909101815260449091019091526020810180516001600160e01b03166327b7cf8560e01b179052610b1090610c46565b610b10816040516024018080602001828103825283818151815260200191508051906020019080838360005b83811015610be4578181015183820152602001610bcc565b50505050905090810190601f168015610c115780820380516001836020036101000a031916815260200191505b5060408051601f198184030181529190526020810180516001600160e01b03166305f3bfab60e11b1790529250610c46915050565b80516a636f6e736f6c652e6c6f67602083016000808483855afa5050505050565b50805460018160011615610100020316600290046000825580601f10610c8d5750610b10565b601f016020900490600052602060002090810190610b109190610d4e565b6040518060600160405280600015158152602001606081526020016000151581525090565b828054600181600116156101000203166002900490600052602060002090601f016020900481019282601f10610d1157805160ff1916838001178555610d3e565b82800160010185558215610d3e579182015b82811115610d3e578251825591602001919060010190610d23565b50610d4a929150610d4e565b5090565b610d6891905b80821115610d4a5760008155600101610d54565b9056fea264697066735822122008c3baa3dde379313c98739f1cfda180f1d3445abfcb4c10f4153107278c048a64736f6c634300060800336865766d20636865617420636f646500000000000000000000000000000000007472616e7366657228616464726573732c616464726573732c75696e7432353629",
    "linkReferences": {}
  },
  "methodIdentifiers": {
    "BLOCK_NUMBER_FROM_HEADER()": "87ada000",
    "EPOCH_SIZE()": "62656003",
    "FRACTION_MUL()": "b1bf964d",
    "GET_PARENT_SEAL_BITMAP()": "dd18aba5",
    "GET_VALIDATOR()": "1813a7e8",
    "GET_VERIFIED_SEAL_BITMAP()": "187f9b50",
    "HASH_HEADER()": "24b25d26",
    "NUMBER_VALIDATORS()": "59f436f6",
    "PROOF_OF_POSSESSION()": "d45b54ec",
    "TRANSFER()": "76420e1d",
    "catchAll()": "c94ebecd",
    "clearMock(address,bytes32)": "358aa643",
    "debug()": "588ee29b",
    "epochSize()": "572d356e",
    "mockReturn(address,bytes32,bytes)": "56e99e14",
    "mockRevert(address,bytes32)": "dd1bb133",
    "mockSuccess(address,bytes32)": "1b65390e",
    "setDebug(bool)": "0c2cb820",
    "setEpochSize(uint256)": "f7b5ef78",
    "transfer(address,address,uint256)": "beabacc8",
    "vm()": "3a768463"
  },
  "id": 51
}