{
  "abi": [
    {
      "inputs": [
        {
          "internalType": "contract IUniswapV2Factory",
          "name": "factory",
          "type": "address"
        },
        {
          "internalType": "uint256",
          "name": "offset",
          "type": "uint256"
        },
        {
          "internalType": "uint256",
          "name": "limit",
          "type": "uint256"
        }
      ],
      "name": "findPairs",
      "outputs": [
        {
          "components": [
            {
              "internalType": "contract IUniswapV2Pair",
              "name": "pair",
              "type": "address"
            },
            {
              "internalType": "address",
              "name": "token0",
              "type": "address"
            },
            {
              "internalType": "address",
              "name": "token1",
              "type": "address"
            },
            {
              "components": [
                {
                  "internalType": "uint256",
                  "name": "reserve0",
                  "type": "uint256"
                },
                {
                  "internalType": "uint256",
                  "name": "reserve1",
                  "type": "uint256"
                }
              ],
              "internalType": "struct RegistryHelperUniswapV2.PairState",
              "name": "state",
              "type": "tuple"
            }
          ],
          "internalType": "struct RegistryHelperUniswapV2.PairInfo[]",
          "name": "result",
          "type": "tuple[]"
        }
      ],
      "stateMutability": "view",
      "type": "function"
    },
    {
      "inputs": [
        {
          "internalType": "contract IUniswapV2Pair[]",
          "name": "pairs",
          "type": "address[]"
        }
      ],
      "name": "refreshPairs",
      "outputs": [
        {
          "components": [
            {
              "internalType": "uint256",
              "name": "reserve0",
              "type": "uint256"
            },
            {
              "internalType": "uint256",
              "name": "reserve1",
              "type": "uint256"
            }
          ],
          "internalType": "struct RegistryHelperUniswapV2.PairState[]",
          "name": "result",
          "type": "tuple[]"
        }
      ],
      "stateMutability": "view",
      "type": "function"
    }
  ],
  "bytecode": {
    "object": "0x608060405234801561001057600080fd5b50610805806100206000396000f3fe608060405234801561001057600080fd5b50600436106100365760003560e01c806321e5656e1461003b57806341d8210514610064575b600080fd5b61004e610049366004610610565b610084565b60405161005b91906106db565b60405180910390f35b6100776100723660046105a4565b6103f7565b60405161005b9190610759565b60606000846001600160a01b031663574f2ba36040518163ffffffff1660e01b815260040160206040518083038186803b1580156100c157600080fd5b505afa1580156100d5573d6000803e3d6000fd5b505050506040513d601f19601f820116820180604052508101906100f991906106b4565b905082840181111561010e575082820161011c565b8381101561011c57506103f0565b83810367ffffffffffffffff8111801561013557600080fd5b5060405190808252806020026020018201604052801561016f57816020015b61015c610540565b8152602001906001900390816101545790505b509150835b818110156103ed57604051631e3dd18b60e01b81526000906001600160a01b03881690631e3dd18b906101ab908590600401610799565b60206040518083038186803b1580156101c357600080fd5b505afa1580156101d7573d6000803e3d6000fd5b505050506040513d601f19601f820116820180604052508101906101fb9190610588565b90506000816001600160a01b0316630dfe16816040518163ffffffff1660e01b815260040160206040518083038186803b15801561023857600080fd5b505afa15801561024c573d6000803e3d6000fd5b505050506040513d601f19601f820116820180604052508101906102709190610588565b90506000826001600160a01b031663d21220a76040518163ffffffff1660e01b815260040160206040518083038186803b1580156102ad57600080fd5b505afa1580156102c1573d6000803e3d6000fd5b505050506040513d601f19601f820116820180604052508101906102e59190610588565b9050600080846001600160a01b0316630902f1ac6040518163ffffffff1660e01b815260040160606040518083038186803b15801561032357600080fd5b505afa158015610337573d6000803e3d6000fd5b505050506040513d601f19601f8201168201806040525081019061035b9190610660565b506001600160701b031691506001600160701b031691506040518060800160405280866001600160a01b03168152602001856001600160a01b03168152602001846001600160a01b03168152602001604051806040016040528085815260200184815250815250888b8803815181106103d057fe5b602002602001018190525050505050508080600101915050610174565b50505b9392505050565b60608167ffffffffffffffff8111801561041057600080fd5b5060405190808252806020026020018201604052801561044a57816020015b61043761056e565b81526020019060019003908161042f5790505b50905060005b828110156105395760008085858481811061046757fe5b905060200201602081019061047c9190610644565b6001600160a01b0316630902f1ac6040518163ffffffff1660e01b815260040160606040518083038186803b1580156104b457600080fd5b505afa1580156104c8573d6000803e3d6000fd5b505050506040513d601f19601f820116820180604052508101906104ec9190610660565b506001600160701b031691506001600160701b0316915060405180604001604052808381526020018281525084848151811061052457fe5b60209081029190910101525050600101610450565b5092915050565b60408051608081018252600080825260208201819052918101919091526060810161056961056e565b905290565b604051806040016040528060008152602001600081525090565b600060208284031215610599578081fd5b81516103f0816107a2565b600080602083850312156105b6578081fd5b823567ffffffffffffffff808211156105cd578283fd5b81850186601f8201126105de578384fd5b80359250818311156105ee578384fd5b8660208085028301011115610601578384fd5b60200196919550909350505050565b600080600060608486031215610624578081fd5b833561062f816107a2565b95602085013595506040909401359392505050565b600060208284031215610655578081fd5b81356103f0816107a2565b600080600060608486031215610674578283fd5b835161067f816107ba565b6020850151909350610690816107ba565b604085015190925063ffffffff811681146106a9578182fd5b809150509250925092565b6000602082840312156106c5578081fd5b5051919050565b80518252602090810151910152565b602080825282518282018190526000919060409081850190868401855b8281101561074c57815180516001600160a01b03908116865287820151811688870152868201511686860152606080820151610736828801826106cc565b50505060a09390930192908501906001016106f8565b5091979650505050505050565b602080825282518282018190526000919060409081850190868401855b8281101561074c576107898483516106cc565b9284019290850190600101610776565b90815260200190565b6001600160a01b03811681146107b757600080fd5b50565b6001600160701b03811681146107b757600080fdfea2646970667358221220f19019031290ea428b733ee75bd311056999d797faeba24adf45d17affd2269e64736f6c63430006080033",
    "linkReferences": {}
  },
  "methodIdentifiers": {
    "findPairs(address,uint256,uint256)": "21e5656e",
    "refreshPairs(address[])": "41d82105"
  },
  "id": 27
}