{
  "abi": [
    {
      "inputs": [
        {
          "internalType": "contract IBRegistry",
          "name": "registry",
          "type": "address"
        },
        {
          "internalType": "address[]",
          "name": "fromTokens",
          "type": "address[]"
        },
        {
          "internalType": "address[]",
          "name": "toTokens",
          "type": "address[]"
        }
      ],
      "name": "findPools",
      "outputs": [
        {
          "components": [
            {
              "internalType": "contract IBPool",
              "name": "pool",
              "type": "address"
            },
            {
              "internalType": "uint256",
              "name": "swapFee",
              "type": "uint256"
            },
            {
              "components": [
                {
                  "internalType": "address",
                  "name": "token",
                  "type": "address"
                },
                {
                  "internalType": "uint256",
                  "name": "balance",
                  "type": "uint256"
                },
                {
                  "internalType": "uint256",
                  "name": "denormalizedWeight",
                  "type": "uint256"
                }
              ],
              "internalType": "struct RegistryHelperBalancer.TokenState[]",
              "name": "tokenStates",
              "type": "tuple[]"
            }
          ],
          "internalType": "struct RegistryHelperBalancer.PoolInfo[]",
          "name": "result",
          "type": "tuple[]"
        }
      ],
      "stateMutability": "view",
      "type": "function"
    },
    {
      "inputs": [
        {
          "internalType": "contract IBPool",
          "name": "pool",
          "type": "address"
        }
      ],
      "name": "getPoolInfo",
      "outputs": [
        {
          "components": [
            {
              "internalType": "contract IBPool",
              "name": "pool",
              "type": "address"
            },
            {
              "internalType": "uint256",
              "name": "swapFee",
              "type": "uint256"
            },
            {
              "components": [
                {
                  "internalType": "address",
                  "name": "token",
                  "type": "address"
                },
                {
                  "internalType": "uint256",
                  "name": "balance",
                  "type": "uint256"
                },
                {
                  "internalType": "uint256",
                  "name": "denormalizedWeight",
                  "type": "uint256"
                }
              ],
              "internalType": "struct RegistryHelperBalancer.TokenState[]",
              "name": "tokenStates",
              "type": "tuple[]"
            }
          ],
          "internalType": "struct RegistryHelperBalancer.PoolInfo",
          "name": "result",
          "type": "tuple"
        }
      ],
      "stateMutability": "view",
      "type": "function"
    },
    {
      "inputs": [
        {
          "internalType": "contract IBPool[]",
          "name": "pools",
          "type": "address[]"
        }
      ],
      "name": "refreshPools",
      "outputs": [
        {
          "components": [
            {
              "internalType": "contract IBPool",
              "name": "pool",
              "type": "address"
            },
            {
              "internalType": "uint256",
              "name": "swapFee",
              "type": "uint256"
            },
            {
              "components": [
                {
                  "internalType": "address",
                  "name": "token",
                  "type": "address"
                },
                {
                  "internalType": "uint256",
                  "name": "balance",
                  "type": "uint256"
                },
                {
                  "internalType": "uint256",
                  "name": "denormalizedWeight",
                  "type": "uint256"
                }
              ],
              "internalType": "struct RegistryHelperBalancer.TokenState[]",
              "name": "tokenStates",
              "type": "tuple[]"
            }
          ],
          "internalType": "struct RegistryHelperBalancer.PoolInfo[]",
          "name": "result",
          "type": "tuple[]"
        }
      ],
      "stateMutability": "view",
      "type": "function"
    }
  ],
  "bytecode": {
    "object": "0x608060405234801561001057600080fd5b50610dca806100206000396000f3fe608060405234801561001057600080fd5b50600436106100415760003560e01c806306bfa938146100465780639756ef771461006f578063977982ba1461008f575b600080fd5b61005961005436600461091b565b6100a2565b6040516100669190610d22565b60405180910390f35b61008261007d366004610a3f565b610374565b6040516100669190610c73565b61008261009d3660046109df565b61071a565b6100aa610838565b6060826001600160a01b031663cc77828d6040518163ffffffff1660e01b815260040160006040518083038186803b1580156100e557600080fd5b505afa1580156100f9573d6000803e3d6000fd5b505050506040513d6000823e601f3d908101601f19168201604052610121919081019061093e565b90506060815167ffffffffffffffff8111801561013d57600080fd5b5060405190808252806020026020018201604052801561017757816020015b610164610862565b81526020019060019003908161015c5790505b50905060005b82518110156102d857600083828151811061019457fe5b602002602001015190506040518060600160405280826001600160a01b03168152602001876001600160a01b031663f8b2cb4f846040518263ffffffff1660e01b81526004016101e49190610c3b565b60206040518083038186803b1580156101fc57600080fd5b505afa158015610210573d6000803e3d6000fd5b505050506040513d601f19601f820116820180604052508101906102349190610ba4565b8152602001876001600160a01b031663948d8ce6846040518263ffffffff1660e01b81526004016102659190610c3b565b60206040518083038186803b15801561027d57600080fd5b505afa158015610291573d6000803e3d6000fd5b505050506040513d601f19601f820116820180604052508101906102b59190610ba4565b8152508383815181106102c457fe5b60209081029190910101525060010161017d565b506040518060600160405280856001600160a01b03168152602001856001600160a01b031663d4cadf686040518163ffffffff1660e01b815260040160206040518083038186803b15801561032c57600080fd5b505afa158015610340573d6000803e3d6000fd5b505050506040513d601f19601f820116820180604052508101906103649190610ba4565b8152602001919091529392505050565b606083821461039e5760405162461bcd60e51b815260040161039590610cd3565b60405180910390fd5b60606005850267ffffffffffffffff811180156103ba57600080fd5b506040519080825280602002602001820160405280156103e4578160200160208202803683370190505b5090506000805b868110156105f6576060896001600160a01b031663bfdbfc438a8a8581811061041057fe5b9050602002016020810190610425919061091b565b89898681811061043157fe5b9050602002016020810190610446919061091b565b60056040518463ffffffff1660e01b815260040161046693929190610c4f565b60006040518083038186803b15801561047e57600080fd5b505afa158015610492573d6000803e3d6000fd5b505050506040513d6000823e601f3d908101601f191682016040526104ba919081019061093e565b905060005b81518110156105ec5760008282815181106104d657fe5b60200260200101519050806001600160a01b0316638d4e40836040518163ffffffff1660e01b815260040160206040518083038186803b15801561051957600080fd5b505afa15801561052d573d6000803e3d6000fd5b505050506040513d601f19601f820116820180604052508101906105519190610a1f565b61055b57506105e4565b600160005b868110156105a657826001600160a01b031688828151811061057e57fe5b60200260200101516001600160a01b0316141561059e57600091506105a6565b600101610560565b5080156105e157818787806001019850815181106105c057fe5b60200260200101906001600160a01b031690816001600160a01b0316815250505b50505b6001016104bf565b50506001016103eb565b508067ffffffffffffffff8111801561060e57600080fd5b5060405190808252806020026020018201604052801561064857816020015b610635610838565b81526020019060019003908161062d5790505b50925060005b8181101561070e57600083828151811061066457fe5b60200260200101519050306001600160a01b03166306bfa938826040518263ffffffff1660e01b815260040161069a9190610c3b565b60006040518083038186803b1580156106b257600080fd5b505afa1580156106c6573d6000803e3d6000fd5b505050506040513d6000823e601f3d908101601f191682016040526106ee9190810190610abf565b8583815181106106fa57fe5b60209081029190910101525060010161064e565b50505095945050505050565b60608167ffffffffffffffff8111801561073357600080fd5b5060405190808252806020026020018201604052801561076d57816020015b61075a610838565b8152602001906001900390816107525790505b50905060005b8281101561083157306306bfa93885858481811061078d57fe5b90506020020160208101906107a2919061091b565b6040518263ffffffff1660e01b81526004016107be9190610c3b565b60006040518083038186803b1580156107d657600080fd5b505afa1580156107ea573d6000803e3d6000fd5b505050506040513d6000823e601f3d908101601f191682016040526108129190810190610abf565b82828151811061081e57fe5b6020908102919091010152600101610773565b5092915050565b604051806060016040528060006001600160a01b0316815260200160008152602001606081525090565b604051806060016040528060006001600160a01b0316815260200160008152602001600081525090565b60008083601f84011261089d578182fd5b50813567ffffffffffffffff8111156108b4578182fd5b60208301915083602080830285010111156108ce57600080fd5b9250929050565b6000606082840312156108e6578081fd5b6108f06060610d35565b905081516108fd81610d7c565b80825250602082015160208201526040820151604082015292915050565b60006020828403121561092c578081fd5b813561093781610d7c565b9392505050565b60006020808385031215610950578182fd5b825167ffffffffffffffff811115610966578283fd5b80840185601f820112610977578384fd5b8051915061098c61098783610d5c565b610d35565b82815283810190828501858502840186018910156109a8578687fd5b8693505b848410156109d35780516109bf81610d7c565b8352600193909301929185019185016109ac565b50979650505050505050565b600080602083850312156109f1578081fd5b823567ffffffffffffffff811115610a07578182fd5b610a138582860161088c565b90969095509350505050565b600060208284031215610a30578081fd5b81518015158114610937578182fd5b600080600080600060608688031215610a56578081fd5b8535610a6181610d7c565b9450602086013567ffffffffffffffff80821115610a7d578283fd5b610a8989838a0161088c565b90965094506040880135915080821115610aa1578283fd5b50610aae8882890161088c565b969995985093965092949392505050565b60006020808385031215610ad1578182fd5b825167ffffffffffffffff80821115610ae8578384fd5b6060918501808703831315610afb578485fd5b610b0483610d35565b8151610b0f81610d7c565b81528185015185820152604082015183811115610b2a578687fd5b82019250601f83018813610b3c578586fd5b82519150610b4c61098783610d5c565b82815285810190848701868502860188018b1015610b68578889fd5b8895505b84861015610b9257610b7e8b826108d5565b835260019590950194918701918601610b6c565b50604083015250979650505050505050565b600060208284031215610bb5578081fd5b5051919050565b6000606080840160018060a01b038085511686526020808601518188015260408087015185828a015284815180875260808b01915084830196508892505b80831015610c2d578651805187168352858101518684015284015184830152958401956001929092019190870190610bfa565b509998505050505050505050565b6001600160a01b0391909116815260200190565b6001600160a01b039384168152919092166020820152604081019190915260600190565b6000602080830181845280855180835260408601915060408482028701019250838701855b82811015610cc657603f19888603018452610cb4858351610bbc565b94509285019290850190600101610c98565b5092979650505050505050565b6020808252602f908201527f66726f6d546f6b656e7320616e6420746f546f6b656e73206d7573742062652060408201526e0decc40cae2eac2d840d8cadccee8d608b1b606082015260800190565b6000602082526109376020830184610bbc565b60405181810167ffffffffffffffff81118282101715610d5457600080fd5b604052919050565b600067ffffffffffffffff821115610d72578081fd5b5060209081020190565b6001600160a01b0381168114610d9157600080fd5b5056fea2646970667358221220f64be509228d7527af3cddc9a899946c1d5caf22ef504e24cb417b9b2a8dc6a164736f6c63430006080033",
    "linkReferences": {}
  },
  "methodIdentifiers": {
    "findPools(address,address[],address[])": "9756ef77",
    "getPoolInfo(address)": "06bfa938",
    "refreshPools(address[])": "977982ba"
  },
  "id": 26
}