{
  "abi": [
    {
      "anonymous": false,
      "inputs": [
        {
          "indexed": true,
          "internalType": "address",
          "name": "sender",
          "type": "address"
        },
        {
          "indexed": false,
          "internalType": "address",
          "name": "to",
          "type": "address"
        },
        {
          "indexed": true,
          "internalType": "address",
          "name": "input",
          "type": "address"
        },
        {
          "indexed": true,
          "internalType": "address",
          "name": "output",
          "type": "address"
        },
        {
          "indexed": false,
          "internalType": "uint256",
          "name": "inputAmount",
          "type": "uint256"
        },
        {
          "indexed": false,
          "internalType": "uint256",
          "name": "outputAmount",
          "type": "uint256"
        }
      ],
      "name": "Swap",
      "type": "event"
    },
    {
      "inputs": [
        {
          "internalType": "address[]",
          "name": "path",
          "type": "address[]"
        },
        {
          "internalType": "address[]",
          "name": "pairs",
          "type": "address[]"
        },
        {
          "internalType": "bytes[]",
          "name": "extras",
          "type": "bytes[]"
        },
        {
          "internalType": "uint256",
          "name": "inputAmount",
          "type": "uint256"
        }
      ],
      "name": "getOutputAmount",
      "outputs": [
        {
          "internalType": "uint256",
          "name": "outputAmount",
          "type": "uint256"
        }
      ],
      "stateMutability": "view",
      "type": "function"
    },
    {
      "inputs": [
        {
          "internalType": "address[]",
          "name": "path",
          "type": "address[]"
        },
        {
          "internalType": "address[]",
          "name": "pairs",
          "type": "address[]"
        },
        {
          "internalType": "bytes[]",
          "name": "extras",
          "type": "bytes[]"
        },
        {
          "internalType": "uint256",
          "name": "inputAmount",
          "type": "uint256"
        },
        {
          "internalType": "uint256",
          "name": "minOutputAmount",
          "type": "uint256"
        },
        {
          "internalType": "address",
          "name": "to",
          "type": "address"
        },
        {
          "internalType": "uint256",
          "name": "deadline",
          "type": "uint256"
        }
      ],
      "name": "swapExactInputForOutput",
      "outputs": [
        {
          "internalType": "uint256",
          "name": "outputAmount",
          "type": "uint256"
        }
      ],
      "stateMutability": "nonpayable",
      "type": "function"
    },
    {
      "inputs": [
        {
          "internalType": "address[]",
          "name": "path",
          "type": "address[]"
        },
        {
          "internalType": "address[]",
          "name": "pairs",
          "type": "address[]"
        },
        {
          "internalType": "bytes[]",
          "name": "extras",
          "type": "bytes[]"
        },
        {
          "internalType": "uint256",
          "name": "inputAmount",
          "type": "uint256"
        },
        {
          "internalType": "uint256",
          "name": "minOutputAmount",
          "type": "uint256"
        },
        {
          "internalType": "address",
          "name": "to",
          "type": "address"
        },
        {
          "internalType": "uint256",
          "name": "deadline",
          "type": "uint256"
        }
      ],
      "name": "swapExactInputForOutputWithPrecheck",
      "outputs": [
        {
          "internalType": "uint256",
          "name": "outputAmount",
          "type": "uint256"
        }
      ],
      "stateMutability": "nonpayable",
      "type": "function"
    },
    {
      "stateMutability": "payable",
      "type": "receive"
    }
  ],
  "bytecode": {
    "object": "0x608060405234801561001057600080fd5b50611198806100206000396000f3fe6080604052600436106100385760003560e01c80630862d12f14610044578063adf6fa021461007a578063e2f46a001461009a5761003f565b3661003f57005b600080fd5b34801561005057600080fd5b5061006461005f366004610c67565b6100ba565b6040516100719190611112565b60405180910390f35b34801561008657600080fd5b50610064610095366004610c67565b61059d565b3480156100a657600080fd5b506100646100b5366004610bc8565b610a1b565b600081428110156100e65760405162461bcd60e51b81526004016100dd9061100b565b60405180910390fd5b600189018b146101085760405162461bcd60e51b81526004016100dd90611083565b8887146101275760405162461bcd60e51b81526004016100dd9061103b565b886101445760405162461bcd60e51b81526004016100dd90610ee1565b8b8b600081811061015157fe5b90506020020160208101906101669190610ba6565b6001600160a01b03166323b872dd338c8c600081811061018257fe5b90506020020160208101906101979190610ba6565b896040518463ffffffff1660e01b81526004016101b693929190610dc1565b602060405180830381600087803b1580156101d057600080fd5b505af11580156101e4573d6000803e3d6000fd5b505050506040513d601f19601f820116820180604052508101906102089190610d2a565b6102245760405162461bcd60e51b81526004016100dd90610f2b565b60005b898110156103ae576000808e8e8481811061023e57fe5b90506020020160208101906102539190610ba6565b8f8f8560010181811061026257fe5b90506020020160208101906102779190610ba6565b909250905060006000198d01841061028f57306102b3565b8d8d8560010181811061029e57fe5b90506020020160208101906102b39190610ba6565b905060608c8c868181106102c357fe5b90506020028101906102d5919061111b565b8080601f016020809104026020016040519081016040528093929190818152602001838380828437600081840152601f19601f8201169050808301925050505050505090508e8e8681811061032657fe5b905060200201602081019061033b9190610ba6565b6001600160a01b03166332ef8314858585856040518563ffffffff1660e01b815260040161036c9493929190610de5565b600060405180830381600087803b15801561038657600080fd5b505af115801561039a573d6000803e3d6000fd5b505060019096019550610227945050505050565b5060008c8c60001981018181106103c157fe5b90506020020160208101906103d69190610ba6565b6040516370a0823160e01b81529091506001600160a01b038216906370a0823190610405903090600401610dad565b60206040518083038186803b15801561041d57600080fd5b505afa158015610431573d6000803e3d6000fd5b505050506040513d601f19601f820116820180604052508101906104559190610d4a565b9250858310156104775760405162461bcd60e51b81526004016100dd906110c9565b60405163a9059cbb60e01b81526001600160a01b0382169063a9059cbb906104a59088908790600401610ea7565b602060405180830381600087803b1580156104bf57600080fd5b505af11580156104d3573d6000803e3d6000fd5b505050506040513d601f19601f820116820180604052508101906104f79190610d2a565b6105135760405162461bcd60e51b81526004016100dd90610fc7565b806001600160a01b03168d8d600081811061052a57fe5b905060200201602081019061053f9190610ba6565b6001600160a01b0316336001600160a01b03167f20efd6d5195b7b50273f01cd79a27989255356f9f13293edc53ee142accfdb75888b8860405161058593929190610ec0565b60405180910390a450509a9950505050505050505050565b600081428110156105c05760405162461bcd60e51b81526004016100dd9061100b565b600189018b146105e25760405162461bcd60e51b81526004016100dd90611083565b8887146106015760405162461bcd60e51b81526004016100dd9061103b565b8861061e5760405162461bcd60e51b81526004016100dd90610ee1565b85915060005b89811015610790576000808e8e8481811061063b57fe5b90506020020160208101906106509190610ba6565b8f8f8560010181811061065f57fe5b90506020020160208101906106749190610ba6565b9150915060608b8b8581811061068657fe5b9050602002810190610698919061111b565b8080601f016020809104026020016040519081016040528093929190818152602001838380828437600081840152601f19601f8201169050808301925050505050505090508d8d858181106106e957fe5b90506020020160208101906106fe9190610ba6565b6001600160a01b0316637eace892848489856040518563ffffffff1660e01b815260040161072f9493929190610e74565b60206040518083038186803b15801561074757600080fd5b505afa15801561075b573d6000803e3d6000fd5b505050506040513d601f19601f8201168201806040525081019061077f9190610d4a565b955050600190920191506106249050565b50848210156107b15760405162461bcd60e51b81526004016100dd90610f75565b8b8b60008181106107be57fe5b90506020020160208101906107d39190610ba6565b6001600160a01b03166323b872dd338c8c60008181106107ef57fe5b90506020020160208101906108049190610ba6565b896040518463ffffffff1660e01b815260040161082393929190610dc1565b602060405180830381600087803b15801561083d57600080fd5b505af1158015610851573d6000803e3d6000fd5b505050506040513d601f19601f820116820180604052508101906108759190610d2a565b6108915760405162461bcd60e51b81526004016100dd90610f2b565b60005b898110156103ae576000808e8e848181106108ab57fe5b90506020020160208101906108c09190610ba6565b8f8f856001018181106108cf57fe5b90506020020160208101906108e49190610ba6565b909250905060006000198d0184106108fc5730610920565b8d8d8560010181811061090b57fe5b90506020020160208101906109209190610ba6565b905060608c8c8681811061093057fe5b9050602002810190610942919061111b565b8080601f016020809104026020016040519081016040528093929190818152602001838380828437600081840152601f19601f8201169050808301925050505050505090508e8e8681811061099357fe5b90506020020160208101906109a89190610ba6565b6001600160a01b03166332ef8314858585856040518563ffffffff1660e01b81526004016109d99493929190610de5565b600060405180830381600087803b1580156109f357600080fd5b505af1158015610a07573d6000803e3d6000fd5b505060019096019550610894945050505050565b8060005b85811015610b3457868682818110610a3357fe5b9050602002016020810190610a489190610ba6565b6001600160a01b0316637eace8928a8a84818110610a6257fe5b9050602002016020810190610a779190610ba6565b8b8b85600101818110610a8657fe5b9050602002016020810190610a9b9190610ba6565b85898987818110610aa857fe5b9050602002810190610aba919061111b565b6040518663ffffffff1660e01b8152600401610ada959493929190610e23565b60206040518083038186803b158015610af257600080fd5b505afa158015610b06573d6000803e3d6000fd5b505050506040513d601f19601f82011682018060405250810190610b2a9190610d4a565b9150600101610a1f565b50979650505050505050565b80356001600160a01b0381168114610b5757600080fd5b92915050565b60008083601f840112610b6e578182fd5b50813567ffffffffffffffff811115610b85578182fd5b6020830191508360208083028501011115610b9f57600080fd5b9250929050565b600060208284031215610bb7578081fd5b610bc18383610b40565b9392505050565b60008060008060008060006080888a031215610be2578283fd5b873567ffffffffffffffff80821115610bf9578485fd5b610c058b838c01610b5d565b909950975060208a0135915080821115610c1d578485fd5b610c298b838c01610b5d565b909750955060408a0135915080821115610c41578485fd5b50610c4e8a828b01610b5d565b989b979a50959894979596606090950135949350505050565b60008060008060008060008060008060e08b8d031215610c85578283fd5b8a3567ffffffffffffffff80821115610c9c578485fd5b610ca88e838f01610b5d565b909c509a5060208d0135915080821115610cc0578485fd5b610ccc8e838f01610b5d565b909a50985060408d0135915080821115610ce4578485fd5b50610cf18d828e01610b5d565b90975095505060608b0135935060808b01359250610d128c60a08d01610b40565b915060c08b013590509295989b9194979a5092959850565b600060208284031215610d3b578081fd5b81518015158114610bc1578182fd5b600060208284031215610d5b578081fd5b5051919050565b60008151808452815b81811015610d8757602081850181015186830182015201610d6b565b81811115610d985782602083870101525b50601f01601f19169290920160200192915050565b6001600160a01b0391909116815260200190565b6001600160a01b039384168152919092166020820152604081019190915260600190565b6001600160a01b038581168252848116602083015283166040820152608060608201819052600090610e1990830184610d62565b9695505050505050565b6001600160a01b038681168252851660208201526040810184905260806060820181905281018290526000828460a084013781830160a090810191909152601f909201601f19160101949350505050565b6001600160a01b0385811682528416602082015260408101839052608060608201819052600090610e1990830184610d62565b6001600160a01b03929092168252602082015260400190565b6001600160a01b039390931683526020830191909152604082015260600190565b6020808252602a908201527f537761707061526f757465723a204d7573742068617665206174206c65617374604082015269206f6e6520706169722160b01b606082015260800190565b6020808252602a908201527f537761707061526f757465723a20496e697469616c207472616e7366657246726040820152696f6d206661696c65642160b01b606082015260800190565b60208082526032908201527f537761707061526f757465723a20496e73756666696369656e74206578706563604082015271746564206f757470757420616d6f756e742160701b606082015260800190565b60208082526024908201527f537761707061526f757465723a2046696e616c207472616e73666572206661696040820152636c65642160e01b606082015260800190565b602080825260169082015275537761707061526f757465723a20457870697265642160501b604082015260600190565b60208082526028908201527f537761707061526f757465723a20506169727320616e6420457874726173206d60408201526769736d617463682160c01b606082015260800190565b60208082526026908201527f537761707061526f757465723a205061746820616e64205061697273206d69736040820152656d617463682160d01b606082015260800190565b60208082526029908201527f537761707061526f757465723a20496e73756666696369656e74206f757470756040820152687420616d6f756e742160b81b606082015260800190565b90815260200190565b6000808335601e19843603018112611131578283fd5b8084018035925067ffffffffffffffff83111561114c578384fd5b60200192505036819003821315610b9f57600080fdfea264697066735822122031fbdb3f75e67140f2f23facfdc4ea32c81c1d223c7f06f638eef298bfc0e5f964736f6c63430006080033",
    "linkReferences": {}
  },
  "methodIdentifiers": {
    "getOutputAmount(address[],address[],bytes[],uint256)": "e2f46a00",
    "swapExactInputForOutput(address[],address[],bytes[],uint256,uint256,address,uint256)": "0862d12f",
    "swapExactInputForOutputWithPrecheck(address[],address[],bytes[],uint256,uint256,address,uint256)": "adf6fa02"
  },
  "id": 28
}