{
  "abi": [
    {
      "inputs": [
        {
          "internalType": "address",
          "name": "input",
          "type": "address"
        },
        {
          "internalType": "address",
          "name": "output",
          "type": "address"
        },
        {
          "internalType": "uint256",
          "name": "amountIn",
          "type": "uint256"
        },
        {
          "internalType": "bytes",
          "name": "data",
          "type": "bytes"
        }
      ],
      "name": "getOutputAmount",
      "outputs": [
        {
          "internalType": "uint256",
          "name": "amountOut",
          "type": "uint256"
        }
      ],
      "stateMutability": "view",
      "type": "function"
    },
    {
      "inputs": [
        {
          "internalType": "address",
          "name": "input",
          "type": "address"
        },
        {
          "internalType": "address",
          "name": "output",
          "type": "address"
        },
        {
          "internalType": "address",
          "name": "to",
          "type": "address"
        },
        {
          "internalType": "bytes",
          "name": "data",
          "type": "bytes"
        }
      ],
      "name": "swap",
      "outputs": [],
      "stateMutability": "nonpayable",
      "type": "function"
    },
    {
      "stateMutability": "payable",
      "type": "receive"
    }
  ],
  "bytecode": {
    "object": "0x608060405234801561001057600080fd5b5061078f806100206000396000f3fe60806040526004361061002d5760003560e01c806332ef8314146100395780637eace892146100d957610034565b3661003457005b600080fd5b34801561004557600080fd5b506100d76004803603608081101561005c57600080fd5b6001600160a01b038235811692602081013582169260408201359092169181019060808101606082013564010000000081111561009857600080fd5b8201836020820111156100aa57600080fd5b803590602001918460018302840111640100000000831117156100cc57600080fd5b509092509050610188565b005b3480156100e557600080fd5b50610176600480360360808110156100fc57600080fd5b6001600160a01b0382358116926020810135909116916040820135919081019060808101606082013564010000000081111561013757600080fd5b82018360208201111561014957600080fd5b8035906020019184600183028401116401000000008311171561016b57600080fd5b5090925090506106d1565b60408051918252519081900360200190f35b6000806101ca84848080601f0160208091040260200160405190810160405280939291908181526020018383808284376000920191909152506106da92505050565b915091506000876001600160a01b03166370a08231306040518263ffffffff1660e01b815260040180826001600160a01b03166001600160a01b0316815260200191505060206040518083038186803b15801561022657600080fd5b505afa15801561023a573d6000803e3d6000fd5b505050506040513d602081101561025057600080fd5b50519050600160ff831614156102c357876001600160a01b031663db006a75826040518263ffffffff1660e01b815260040180828152602001915050600060405180830381600087803b1580156102a657600080fd5b505af11580156102ba573d6000803e3d6000fd5b505050506105ea565b8160ff16600214156103c1576000836001600160a01b0316630261bf8b6040518163ffffffff1660e01b815260040160206040518083038186803b15801561030a57600080fd5b505afa15801561031e573d6000803e3d6000fd5b505050506040513d602081101561033457600080fd5b505160408051636968703360e11b815273eeeeeeeeeeeeeeeeeeeeeeeeeeeeeeeeeeeeeeee60048201526024810185905260006044820181905291519293506001600160a01b0384169263d2d0e0669286926064808201939182900301818588803b1580156103a257600080fd5b505af11580156103b6573d6000803e3d6000fd5b5050505050506105ea565b8160ff16600314156105ea576000836001600160a01b0316630261bf8b6040518163ffffffff1660e01b815260040160206040518083038186803b15801561040857600080fd5b505afa15801561041c573d6000803e3d6000fd5b505050506040513d602081101561043257600080fd5b50516040805163076b7fbb60e51b815290519192506000916001600160a01b0387169163ed6ff760916004808301926020929190829003018186803b15801561047a57600080fd5b505afa15801561048e573d6000803e3d6000fd5b505050506040513d60208110156104a457600080fd5b50516040805163095ea7b360e01b81526001600160a01b038084166004830152602482018790529151929350908c169163095ea7b3916044808201926020929091908290030181600087803b1580156104fc57600080fd5b505af1158015610510573d6000803e3d6000fd5b505050506040513d602081101561052657600080fd5b5051610579576040805162461bcd60e51b815260206004820152601b60248201527f5061697241546f6b656e3a20617070726f7665206661696c6564210000000000604482015290519081900360640190fd5b60408051636968703360e11b81526001600160a01b038c811660048301526024820186905260006044830181905292519085169263d2d0e066926064808201939182900301818387803b1580156105cf57600080fd5b505af11580156105e3573d6000803e3d6000fd5b5050505050505b866001600160a01b031663a9059cbb87836040518363ffffffff1660e01b815260040180836001600160a01b03166001600160a01b0316815260200182815260200192505050602060405180830381600087803b15801561064a57600080fd5b505af115801561065e573d6000803e3d6000fd5b505050506040513d602081101561067457600080fd5b50516106c7576040805162461bcd60e51b815260206004820152601c60248201527f5061697241546f6b656e3a207472616e73666572206661696c65642100000000604482015290519081900360640190fd5b5050505050505050565b50909392505050565b6000808251601514610733576040805162461bcd60e51b815260206004820152601960248201527f5061697241546f6b656e3a20696e76616c696420646174612100000000000000604482015290519081900360640190fd5b8260148151811061074057fe5b0160200151601493909301519360f89390931c9291505056fea2646970667358221220c19b65f898a919b7d0da0f6507fbaa5c135af23cc5325dd85d9ae050b3afe4ac64736f6c63430006080033",
    "linkReferences": {}
  },
  "methodIdentifiers": {
    "getOutputAmount(address,address,uint256,bytes)": "7eace892",
    "swap(address,address,address,bytes)": "32ef8314"
  },
  "id": 15
}