{
  "abi": [
    {
      "inputs": [
        {
          "internalType": "address",
          "name": "input",
          "type": "address"
        },
        {
          "internalType": "address",
          "name": "output",
          "type": "address"
        },
        {
          "internalType": "uint256",
          "name": "amountIn",
          "type": "uint256"
        },
        {
          "internalType": "bytes",
          "name": "data",
          "type": "bytes"
        }
      ],
      "name": "getOutputAmount",
      "outputs": [
        {
          "internalType": "uint256",
          "name": "amountOut",
          "type": "uint256"
        }
      ],
      "stateMutability": "view",
      "type": "function"
    },
    {
      "inputs": [
        {
          "internalType": "address",
          "name": "input",
          "type": "address"
        },
        {
          "internalType": "address",
          "name": "output",
          "type": "address"
        },
        {
          "internalType": "address",
          "name": "to",
          "type": "address"
        },
        {
          "internalType": "bytes",
          "name": "data",
          "type": "bytes"
        }
      ],
      "name": "swap",
      "outputs": [],
      "stateMutability": "nonpayable",
      "type": "function"
    }
  ],
  "bytecode": {
    "object": "0x608060405234801561001057600080fd5b50610840806100206000396000f3fe608060405234801561001057600080fd5b50600436106100365760003560e01c806332ef83141461003b5780637eace892146100ce575b600080fd5b6100cc6004803603608081101561005157600080fd5b6001600160a01b038235811692602081013582169260408201359092169181019060808101606082013564010000000081111561008d57600080fd5b82018360208201111561009f57600080fd5b803590602001918460018302840111640100000000831117156100c157600080fd5b509092509050610170565b005b61015e600480360360808110156100e457600080fd5b6001600160a01b0382358116926020810135909116916040820135919081019060808101606082013564010000000081111561011f57600080fd5b82018360208201111561013157600080fd5b8035906020019184600183028401116401000000008311171561015357600080fd5b50909250905061046e565b60408051918252519081900360200190f35b60006101b183838080601f0160208091040260200160405190810160405280939291908181526020018383808284376000920191909152506107aa92505050565b604080516370a0823160e01b815230600482015290519192506000916001600160a01b038916916370a08231916024808301926020929190829003018186803b1580156101fd57600080fd5b505afa158015610211573d6000803e3d6000fd5b505050506040513d602081101561022757600080fd5b50516040805163095ea7b360e01b81526001600160a01b0385811660048301526024820184905291519293509089169163095ea7b3916044808201926020929091908290030181600087803b15801561027f57600080fd5b505af1158015610293573d6000803e3d6000fd5b505050506040513d60208110156102a957600080fd5b50516102fc576040805162461bcd60e51b815260206004820152601a60248201527f5061697242506f6f6c3a20617070726f7665206661696c656421000000000000604482015290519081900360640190fd5b60408051638201aa3f60e01b81526001600160a01b03898116600483015260248201849052888116604483015260006064830181905260001960848401528351909391861692638201aa3f9260a480830193919282900301818787803b15801561036557600080fd5b505af1158015610379573d6000803e3d6000fd5b505050506040513d604081101561038f57600080fd5b50516040805163a9059cbb60e01b81526001600160a01b0389811660048301526024820184905291519293509089169163a9059cbb916044808201926020929091908290030181600087803b1580156103e757600080fd5b505af11580156103fb573d6000803e3d6000fd5b505050506040513d602081101561041157600080fd5b5051610464576040805162461bcd60e51b815260206004820152601b60248201527f5061697242506f6f6c3a207472616e73666572206661696c6564210000000000604482015290519081900360640190fd5b5050505050505050565b6000806104b084848080601f0160208091040260200160405190810160405280939291908181526020018383808284376000920191909152506107aa92505050565b9050806001600160a01b031663ba9530a6826001600160a01b031663f8b2cb4f8a6040518263ffffffff1660e01b815260040180826001600160a01b03166001600160a01b0316815260200191505060206040518083038186803b15801561051757600080fd5b505afa15801561052b573d6000803e3d6000fd5b505050506040513d602081101561054157600080fd5b505160408051634a46c67360e11b81526001600160a01b038c8116600483015291519186169163948d8ce691602480820192602092909190829003018186803b15801561058d57600080fd5b505afa1580156105a1573d6000803e3d6000fd5b505050506040513d60208110156105b757600080fd5b50516040805163f8b2cb4f60e01b81526001600160a01b038c8116600483015291519187169163f8b2cb4f91602480820192602092909190829003018186803b15801561060357600080fd5b505afa158015610617573d6000803e3d6000fd5b505050506040513d602081101561062d57600080fd5b505160408051634a46c67360e11b81526001600160a01b038d8116600483015291519188169163948d8ce691602480820192602092909190829003018186803b15801561067957600080fd5b505afa15801561068d573d6000803e3d6000fd5b505050506040513d60208110156106a357600080fd5b505160408051631a995bed60e31b815290518c916001600160a01b038a169163d4cadf6891600480820192602092909190829003018186803b1580156106e857600080fd5b505afa1580156106fc573d6000803e3d6000fd5b505050506040513d602081101561071257600080fd5b5051604080516001600160e01b031960e08a901b1681526004810197909752602487019590955260448601939093526064850191909152608484015260a48301525160c4808301926020929190829003018186803b15801561077357600080fd5b505afa158015610787573d6000803e3d6000fd5b505050506040513d602081101561079d57600080fd5b5051979650505050505050565b60008151601414610802576040805162461bcd60e51b815260206004820152601860248201527f5061697242506f6f6c3a20696e76616c69642064617461210000000000000000604482015290519081900360640190fd5b50601401519056fea2646970667358221220f7d94d99bb51fa437628b2d96274d52167dd33a076fffc3a383bce3a19279f0b64736f6c63430006080033",
    "linkReferences": {}
  },
  "methodIdentifiers": {
    "getOutputAmount(address,address,uint256,bytes)": "7eace892",
    "swap(address,address,address,bytes)": "32ef8314"
  },
  "id": 17
}