{
  "abi": [
    {
      "inputs": [],
      "name": "BLOCK_NUMBER_FROM_HEADER",
      "outputs": [
        {
          "internalType": "address",
          "name": "",
          "type": "address"
        }
      ],
      "stateMutability": "view",
      "type": "function"
    },
    {
      "inputs": [],
      "name": "EPOCH_SIZE",
      "outputs": [
        {
          "internalType": "address",
          "name": "",
          "type": "address"
        }
      ],
      "stateMutability": "view",
      "type": "function"
    },
    {
      "inputs": [],
      "name": "FRACTION_MUL",
      "outputs": [
        {
          "internalType": "address",
          "name": "",
          "type": "address"
        }
      ],
      "stateMutability": "view",
      "type": "function"
    },
    {
      "inputs": [],
      "name": "GET_PARENT_SEAL_BITMAP",
      "outputs": [
        {
          "internalType": "address",
          "name": "",
          "type": "address"
        }
      ],
      "stateMutability": "view",
      "type": "function"
    },
    {
      "inputs": [],
      "name": "GET_VALIDATOR",
      "outputs": [
        {
          "internalType": "address",
          "name": "",
          "type": "address"
        }
      ],
      "stateMutability": "view",
      "type": "function"
    },
    {
      "inputs": [],
      "name": "GET_VERIFIED_SEAL_BITMAP",
      "outputs": [
        {
          "internalType": "address",
          "name": "",
          "type": "address"
        }
      ],
      "stateMutability": "view",
      "type": "function"
    },
    {
      "inputs": [],
      "name": "HASH_HEADER",
      "outputs": [
        {
          "internalType": "address",
          "name": "",
          "type": "address"
        }
      ],
      "stateMutability": "view",
      "type": "function"
    },
    {
      "inputs": [],
      "name": "NUMBER_VALIDATORS",
      "outputs": [
        {
          "internalType": "address",
          "name": "",
          "type": "address"
        }
      ],
      "stateMutability": "view",
      "type": "function"
    },
    {
      "inputs": [],
      "name": "PROOF_OF_POSSESSION",
      "outputs": [
        {
          "internalType": "address",
          "name": "",
          "type": "address"
        }
      ],
      "stateMutability": "view",
      "type": "function"
    },
    {
      "inputs": [],
      "name": "TRANSFER",
      "outputs": [
        {
          "internalType": "address",
          "name": "",
          "type": "address"
        }
      ],
      "stateMutability": "view",
      "type": "function"
    }
  ],
  "bytecode": {
    "object": "0x608060405234801561001057600080fd5b50610177806100206000396000f3fe608060405234801561001057600080fd5b506004361061009e5760003560e01c806376420e1d1161006657806376420e1d146100e757806387ada000146100ef578063b1bf964d146100f7578063d45b54ec146100ff578063dd18aba5146101075761009e565b80631813a7e8146100a3578063187f9b50146100c757806324b25d26146100cf57806359f436f6146100d757806362656003146100df575b600080fd5b6100ab61010f565b604080516001600160a01b039092168252519081900360200190f35b6100ab610114565b6100ab610119565b6100ab61011e565b6100ab610123565b6100ab610128565b6100ab61012d565b6100ab610132565b6100ab610137565b6100ab61013c565b60fa81565b60f481565b60f681565b60f981565b60f881565b60fd81565b60f781565b60fc81565b60fb81565b60f58156fea2646970667358221220e562a7710f1e231aed8d40c2244dcc03156a14564d475e2bac6a82170a8554f864736f6c63430006080033",
    "linkReferences": {}
  },
  "methodIdentifiers": {
    "BLOCK_NUMBER_FROM_HEADER()": "87ada000",
    "EPOCH_SIZE()": "62656003",
    "FRACTION_MUL()": "b1bf964d",
    "GET_PARENT_SEAL_BITMAP()": "dd18aba5",
    "GET_VALIDATOR()": "1813a7e8",
    "GET_VERIFIED_SEAL_BITMAP()": "187f9b50",
    "HASH_HEADER()": "24b25d26",
    "NUMBER_VALIDATORS()": "59f436f6",
    "PROOF_OF_POSSESSION()": "d45b54ec",
    "TRANSFER()": "76420e1d"
  },
  "id": 52
}