{
  "abi": [
    {
      "inputs": [
        {
          "internalType": "address",
          "name": "input",
          "type": "address"
        },
        {
          "internalType": "address",
          "name": "output",
          "type": "address"
        },
        {
          "internalType": "uint256",
          "name": "amountIn",
          "type": "uint256"
        },
        {
          "internalType": "bytes",
          "name": "data",
          "type": "bytes"
        }
      ],
      "name": "getOutputAmount",
      "outputs": [
        {
          "internalType": "uint256",
          "name": "amountOut",
          "type": "uint256"
        }
      ],
      "stateMutability": "view",
      "type": "function"
    },
    {
      "inputs": [
        {
          "internalType": "bytes",
          "name": "data",
          "type": "bytes"
        }
      ],
      "name": "parseData",
      "outputs": [
        {
          "internalType": "address",
          "name": "broker",
          "type": "address"
        },
        {
          "internalType": "address",
          "name": "exchangeProvider",
          "type": "address"
        },
        {
          "internalType": "bytes32",
          "name": "exchangeId",
          "type": "bytes32"
        }
      ],
      "stateMutability": "pure",
      "type": "function"
    },
    {
      "inputs": [
        {
          "internalType": "address",
          "name": "input",
          "type": "address"
        },
        {
          "internalType": "address",
          "name": "output",
          "type": "address"
        },
        {
          "internalType": "address",
          "name": "to",
          "type": "address"
        },
        {
          "internalType": "bytes",
          "name": "data",
          "type": "bytes"
        }
      ],
      "name": "swap",
      "outputs": [],
      "stateMutability": "nonpayable",
      "type": "function"
    },
    {
      "stateMutability": "payable",
      "type": "receive"
    }
  ],
  "bytecode": {
    "object": "0x608060405234801561001057600080fd5b5061072a806100206000396000f3fe6080604052600436106100385760003560e01c806332ef83141461004457806365b8de2e146100e45780637eace892146101c15761003f565b3661003f57005b600080fd5b34801561005057600080fd5b506100e26004803603608081101561006757600080fd5b6001600160a01b03823581169260208101358216926040820135909216918101906080810160608201356401000000008111156100a357600080fd5b8201836020820111156100b557600080fd5b803590602001918460018302840111640100000000831117156100d757600080fd5b509092509050610270565b005b3480156100f057600080fd5b506101976004803603602081101561010757600080fd5b81019060208101813564010000000081111561012257600080fd5b82018360208201111561013457600080fd5b8035906020019184600183028401116401000000008311171561015657600080fd5b91908080601f016020809104026020016040519081016040528093929190818152602001838380828437600092019190915250929550610591945050505050565b604080516001600160a01b0394851681529290931660208301528183015290519081900360600190f35b3480156101cd57600080fd5b5061025e600480360360808110156101e457600080fd5b6001600160a01b0382358116926020810135909116916040820135919081019060808101606082013564010000000081111561021f57600080fd5b82018360208201111561023157600080fd5b8035906020019184600183028401116401000000008311171561025357600080fd5b509092509050610603565b60408051918252519081900360200190f35b60008060006102b485858080601f01602080910402602001604051908101604052809392919081815260200183838082843760009201919091525061059192505050565b9250925092506000886001600160a01b03166370a08231306040518263ffffffff1660e01b815260040180826001600160a01b03166001600160a01b0316815260200191505060206040518083038186803b15801561031257600080fd5b505afa158015610326573d6000803e3d6000fd5b505050506040513d602081101561033c57600080fd5b50516040805163095ea7b360e01b81526001600160a01b038781166004830152602482018490529151929350908b169163095ea7b3916044808201926020929091908290030181600087803b15801561039457600080fd5b505af11580156103a8573d6000803e3d6000fd5b505050506040513d60208110156103be57600080fd5b5051610411576040805162461bcd60e51b815260206004820152601c60248201527f506169724d656e746f56323a20617070726f7665206661696c65642100000000604482015290519081900360640190fd5b60408051630ddbbe8560e41b81526001600160a01b038581166004830152602482018590528b811660448301528a8116606483015260848201849052600060a4830181905292518793929184169163ddbbe8509160c480830192602092919082900301818787803b15801561048557600080fd5b505af1158015610499573d6000803e3d6000fd5b505050506040513d60208110156104af57600080fd5b50516040805163a9059cbb60e01b81526001600160a01b038c81166004830152602482018490529151929350908c169163a9059cbb916044808201926020929091908290030181600087803b15801561050757600080fd5b505af115801561051b573d6000803e3d6000fd5b505050506040513d602081101561053157600080fd5b5051610584576040805162461bcd60e51b815260206004820152601d60248201527f506169724d656e746f56323a207472616e73666572206661696c656421000000604482015290519081900360640190fd5b5050505050505050505050565b600080600083516048146105ec576040805162461bcd60e51b815260206004820152601a60248201527f506169724d656e746f56323a20696e76616c6964206461746121000000000000604482015290519081900360640190fd5b505050601481015160288201516048909201519092565b60008060008061064886868080601f01602080910402602001604051908101604052809392919081815260200183838082843760009201919091525061059192505050565b6040805163a20f230560e01b81526001600160a01b038085166004830152602482018490528e811660448301528d81166064830152608482018d9052915194975092955090935085929083169163a20f23059160a4808301926020929190829003018186803b1580156106ba57600080fd5b505afa1580156106ce573d6000803e3d6000fd5b505050506040513d60208110156106e457600080fd5b50519a995050505050505050505056fea26469706673582212203cc17a7de4d287be365676ef1c2286e0102ee179c6f0a14f4e8f7b21de5c250264736f6c63430006080033",
    "linkReferences": {}
  },
  "methodIdentifiers": {
    "getOutputAmount(address,address,uint256,bytes)": "7eace892",
    "parseData(bytes)": "65b8de2e",
    "swap(address,address,address,bytes)": "32ef8314"
  },
  "id": 1
}